0000100001C000010005020260314OPENING BALANCE     
0000100001D000002500020260314DANKORT KOB         
0000100001C000005000020260314MOBILEPAY IND       
0000100002C000300000020260314LOEN MARTS          
0000100002D000025000020260314ATM HAEVNING        
0000100002D000010000020260314NETS BETALING       
0000100003T000006000020260314OVERFORSEL MALFORMED
0000100003C000006000020260314OVERFORSEL CORRECT
0000100004C000005000020260314OVERFORSEL IND      
0000100004D000006000020260314OVERFORSEL UD       